:020000020000FC
:100000000FE50DBF08E00EBF0FEF04BB0ABB0ABB34
:1000100000EF01BB02BB50E060E070E080E091E0E7
:100020000E9496000E94F6000E945D000436C1F313
:100030000F3011F00C942400E82FD72FC62FB52FC6
:100040000E9452000C940B000B3011F00C944A00EB
:1000500088945B1F5A3020F05A5008940C94310059
:1000600088946C1F6A3020F06A5008940C94390010
:1000700088947D1F7A3020F07A5008940C944100C7
:1000800088948E1F8A3010F08A5008940E94520083
:100090000C941000872F762F652F502F0E9452004E
:1000A0000C9410000E945D000436E1F70E94F600F7
:1000B0000E945D000436E1F708950FEE02BB0000D8
:1000C00004E6809B01E0819B04E0829B07E0839B28
:1000D0000AE0043651F50FED02BB000004E6809BF8
:1000E00002E0819B05E0829B08E0839B00E00436F0
:1000F000E1F40FEB02BB000004E6809B03E0819B70
:1001000006E0829B09E0839B0BE0043671F40FE765
:1001100002BB000004E6809B0CE0819B0DE0829B0B
:100120000EE0839B0FE0043601F408950FEF05BB4A
:10013000913049F4052F0E94C3000BBB0FE705BBAC
:1001400093950C94C200923049F4062F0E94C3008C
:100150000BBB0FEB05BB93950C94C200933049F495
:10016000072F0E94C3000BBB0FED05BB93950C94AA
:10017000C200082F0E94C3000BBB0FEE05BB91E02D
:100180000C94C2000895003019F40FE30C94F500AC
:10019000013019F406E00C94F500023019F40BE577
:1001A0000C94F500033019F40FE40C94F5000430BE
:1001B00019F406E60C94F500053019F40DE60C94DC
:1001C000F500063019F40DE70C94F500073019F42A
:1001D00007E00C94F500083019F40FE70C94F500D3
:1001E000093019F407E60C94F50008951F932F9336
:1001F0003F9335E024E11AEF00001A95E9F72A95BC
:0E020000D1F73A95B9F73F912F911F910895CC
:00000001FF
